:020000040000FA
:100000000C9462000C94AB040C9484040C948A004D
:100010000C948A000C948A000C948A000C948A0038
:100020000C948A000C948A000C948A000C948A0028
:100030000C948A000C948A000C948A000C948A0018
:100040000C943A040C948A000C9408040C94E20377
:100050000C948A000C948A000C948A000C948A00F8
:100060000C948A000C948A000000000023002600F3
:10007000290000000000240027002A0000000000E2
:10008000250028002B0004040404040404040202D4
:100090000202020203030303030301020408102007
:1000A0004080010204081020010204081020000012
:1000B0000008000201000003040700000000000027
:1000C0000000B20611241FBECFEFD8E0DEBFCDBFC7
:1000D00011E0A0E0B1E0EAE0F3E102C005900D928A
:1000E000A433B107D9F721E0A4E3B1E001C01D9228
:1000F000A63FB207E1F710E0C2E6D0E004C02197C6
:10010000FE010E947D09C136D107C9F70E94D204C1
:100110000C9483090C940000AF92BF92CF92DF92AF
:10012000EF92FF920F931F93CF93DF936C017B01AC
:100130008B01040F151FEB015E01AE18BF08C0173D
:10014000D10759F06991D601ED91FC910190F081B0
:10015000E02DC6010995892B79F7C501DF91CF9173
:100160001F910F91FF90EF90DF90CF90BF90AF90D5
:100170000895FC01538D448D252F30E0842F90E0AD
:10018000821B930B541710F0CF9608950197089592
:10019000FC01918D828D981761F0A28DAE0FBF2F5B
:1001A000B11D5D968C91928D9F5F9F73928F90E0B1
:1001B00008958FEF9FEF0895FC01918D828D981720
:1001C00031F0828DE80FF11D858D90E008958FEF5D
:1001D0009FEF0895FC01918D228D892F90E0805C26
:1001E0009F4F821B91098F739927089589E591E0AC
:1001F0000E94EA0021E0892B09F420E0822F089573
:1002000080E090E0892B29F00E94F60081110C9487
:1002100000000895FC01A48DA80FB92FB11DA35AA9
:10022000BF4F2C91848D90E001968F739927848F16
:10023000A689B7892C93A089B1898C918370806439
:100240008C93938D848D981306C00288F389E02DDA
:1002500080818F7D80830895EF92FF920F931F938B
:10026000CF93DF93EC0181E0888F9B8D8C8D981369
:100270001AC0E889F989808185FF15C09FB7F89475
:10028000EE89FF896083E889F989808183708064C1
:1002900080839FBF81E090E0DF91CF911F910F910C
:1002A000FF90EF900895F62E0B8D10E00F5F1F4F1B
:1002B0000F731127E02E8C8D8E110CC00FB607FC2A
:1002C000FACFE889F989808185FFF5CFCE010E94B8
:1002D0000A01F1CFEB8DEC0FFD2FF11DE35AFF4F1B
:1002E000F0829FB7F8940B8FEA89FB898081806246
:1002F000CFCFCF93DF93EC01888D8823B9F0AA8903
:10030000BB89E889F9898C9185FD03C0808186FDD0
:100310000DC00FB607FCF7CF8C9185FFF2CF80811F
:1003200085FFEDCFCE010E940A01E9CFDF91CF9189
:100330000895833081F028F4813099F08230A9F05B
:1003400008958730A9F08830C9F08430B1F48091E5
:1003500080008F7D03C0809180008F778093800024
:10036000089584B58F7784BD089584B58F7DFBCFC4
:100370008091B0008F778093B00008958091B00095
:100380008F7DF9CF1F93CF93DF93282F30E0F901B2
:10039000E255FF4F8491F901E656FF4FD491F901E0
:1003A000EA57FF4FC491CC23A9F0162F81110E9468
:1003B0009901EC2FF0E0EE0FFF1FE458FF4FA591DD
:1003C000B4918FB7F894EC91111108C0D095DE2349
:1003D000DC938FBFDF91CF911F910895DE2BF8CF73
:1003E000CF93DF9390E0FC01E656FF4F24918A57AC
:1003F0009F4FFC0184918823D1F090E0880F991FD2
:10040000FC01EE58FF4FA591B491FC01E458FF4F59
:10041000C591D49161110EC09FB7F8948C91E22FD1
:10042000E0958E238C932881E223E8839FBFDF91A0
:10043000CF9108958FB7F894EC91E22BEC938FBF96
:10044000F6CF0895FC0101900020E9F73197AF0144
:10045000481B590BBC0189E591E00C948C008F92EC
:100460009F92AF92BF920F931F93CF93DF93CDB71D
:10047000DEB7A1970FB6F894DEBF0FBECDBF19A2AD
:10048000423008F44AE08E010F5D1F4F842E912CFC
:10049000B12CA12CA50194010E940907E62FB901F6
:1004A000CA01EA30F4F4E05DD801EE938D01232B0C
:1004B000242B252B79F790E080E0109719F0CD01DF
:1004C0000E942202A1960FB6F894DEBF0FBECDBFE8
:1004D000DF91CF911F910F91BF90AF909F908F9020
:1004E0000895E95CE1CF8F929F92AF92BF92CF9235
:1004F000DF92EF92FF92CF93E2EBF0E08491EEE98E
:10050000F0E0F490EAE8F0E0C491CC2309F4BCC038
:1005100081110E949901EC2FF0E0EE0FFF1FE859C6
:10052000FF4FA591B491EC91EF2109F4ADC08091FA
:100530003C0190913D01A0913E01B0913F01019796
:10054000A109B10980933C0190933D01A0933E0124
:10055000B0933F018FB7F894C0904501D090460109
:10056000E0904701F09048018FBF60913C0170918D
:100570003D0180913E0190913F010E9456084B0140
:100580005C01609138017091390180913A0190913C
:100590003B010E9456089B01AC01C501B4010E94B9
:1005A0003A0720E030E040E752E40E940B0920E0E7
:1005B00034E244E759E40E940B094B015C0180914D
:1005C000340190913501A0913601B0913701A70116
:1005D0009601281B390B4A0B5B0BA8E1B0E00E9487
:1005E000FE060E9454089B01AC01C501B4010E94A3
:1005F000AC0720E030E04AE754E40E94AC07609387
:100600005501709356018093570190935801809142
:100610003C0190913D01A0913E01B0913F0180933A
:10062000380190933901A0933A01B0933B01C092F5
:100630003401D0923501E0923601F092370186E123
:1006400091E00E942202C0905501D0905601E090A6
:100650005701F0905801A7019601C701B6010E9409
:1006600078098823E9F08FE191E00E9422028BE271
:1006700091E0CF91FF90EF90DF90CF90BF90AF903F
:100680009F908F900C94220280913C0190913D01AB
:10069000A0913E01B0913F010196A11DB11D52CF25
:1006A00046015701E894B7F82FEF3FEF4FE75FE7B8
:1006B000C501B4010E94780981110DC02FEF3FEFF1
:1006C0004FE75FE7C501B4010E94A70718161CF4A5
:1006D00083E291E0CACF2FEF3FEF4FE75FE4C7011E
:1006E000B6010E94060918161CF487E291E0BDCFFE
:1006F0002FEF3FEF4FE75FECC701B6010E94A7075E
:1007000087FDF3CF20E030E0A901C701B6010E94C8
:10071000A70787FF09C06DE289E591E00E942C01DF
:10072000F7FAF094F7F8F0942AE037ED43EA5BE348
:10073000C701B6010E943B074B015C010E942508DE
:100740006B017C010E9454089B01AC01C501B401FE
:100750000E943A074B015C014AE0C701B6010E94C2
:100760002F026EE289E591E00E942C0120E030E04A
:1007700040E251E4C501B4010E940B094B015C0148
:100780000E9425086B01F12CE12C4AE0C701B6015B
:100790000E942F02C701B6010E9454089B01AC01C0
:1007A000C501B4010E943A0720E030E040E251E484
:1007B0000E940B090E94250890E080E04AE00E9418
:1007C0002F0255CF1F920F920FB60F9211242F9325
:1007D0003F934F935F936F937F938F939F93AF93C9
:1007E000BF93EF93FF9389E591E00E940A01FF9187
:1007F000EF91BF91AF919F918F917F916F915F9199
:100800004F913F912F910F900FBE0F901F90189511
:100810001F920F920FB60F9211242F938F939F93D5
:10082000EF93FF93E0916901F0916A018081E0917B
:100830006F01F091700182FD1BC090818091720167
:100840008F5F8F7320917301821741F0E0917201E5
:10085000F0E0E75AFE4F958F80937201FF91EF9180
:100860009F918F912F910F900FBE0F901F90189511
:100870008081F4CF1F920F920FB60F9211242F9305
:100880003F938F939F93AF93BF9380914501909136
:100890004601A0914701B09148013091440123E005
:1008A000230F2D3758F50196A11DB11D209344014A
:1008B0008093450190934601A0934701B09348016E
:1008C0008091400190914101A0914201B09143017A
:1008D0000196A11DB11D8093400190934101A09309
:1008E0004201B0934301BF91AF919F918F913F918E
:1008F0002F910F900FBE0F901F90189526E8230F91
:100900000296A11DB11DD2CF1F920F920FB60F926A
:1009100011242F933F934F935F936F937F938F9304
:100920009F93AF93BF93EF93FF93E0910201F091F8
:1009300003010995FF91EF91BF91AF919F918F9125
:100940007F916F915F914F913F912F910F900FBECB
:100950000F901F9018951F920F920FB60F921124AF
:100960002F933F934F935F936F937F938F939F93B7
:10097000AF93BF93EF93FF93E0910001F0910101DA
:100980000995FF91EF91BF91AF919F918F917F91C9
:100990006F915F914F913F912F910F900FBE0F90EC
:1009A0001F901895CF93DF9300D000D0CDB7DEB75E
:1009B000789484B5826084BD84B5816084BD85B53A
:1009C000826085BD85B5816085BD80916E00816046
:1009D00080936E00109281008091810082608093EC
:1009E00081008091810081608093810080918000EE
:1009F0008160809380008091B10084608093B10019
:100A00008091B00081608093B00080917A00846012
:100A100080937A0080917A00826080937A0080913E
:100A20007A00816080937A0080917A008068809358
:100A30007A001092C10061E08BE00E94F00161E059
:100A40008AE00E94F00160E082E00E94F00160E034
:100A500084E00E94F00183E792E09093010180938B
:100A6000000180916900836080936900E89AE091B9
:100A70006901F0916A0182E08083E0916501F09163
:100A800066011082E0916701F09168018FEC80832C
:100A900010927101E0916D01F0916E0186E080830A
:100AA000E0916B01F0916C01808180618083E09125
:100AB0006B01F0916C01808188608083E0916B0113
:100AC000F0916C01808180688083E0916B01F091EE
:100AD0006C0180818F7D80838EE291E00E942202F2
:100AE0008BE291E00E94220209EB10E02091550177
:100AF00030915601409157015091580160E070E0EB
:100B000080EF92E40E943A076B017C018FB7F89462
:100B10004090450150904601609047017090480117
:100B20008FBF80914D0190914E01A0914F01B091E6
:100B30005001A3019201281B390B4A0B5B0BCA0120
:100B4000B9010E9454084B015C0140924D01509242
:100B50004E0160924F017092500180914901909135
:100B60004A01A0914B01B0914C0189839A83AB83D8
:100B7000BC8320E030E040EA51E4BC01CD010E949A
:100B80000B09A50194010E940B092B013C0120E0F7
:100B900030E040E251E4C701B6010E940B099B011D
:100BA000AC01C301B2010E943B072B013C0120E0D4
:100BB00030E040EA50E4C701B6010E940B09A501EC
:100BC00094010E94AC079B01AC01C301B2010E94D9
:100BD0003B074B015C018092510190925201A0921F
:100BE0005301B092540129813A814B815C81C70144
:100BF000B6010E943B076093490170934A018093BC
:100C00004B0190934C0120E030E046E253E4C501F3
:100C1000B4010E940609181664F420E030E045E2B1
:100C200053E4209351013093520140935301509368
:100C3000540120E030E0A90160915101709152010E
:100C400080915301909154010E94A70787FF08C02B
:100C500010925101109252011092530110925401BE
:100C60006091510170915201809153019091540112
:100C70000E941E089B01AC01AFEFB0E00E94FE068F
:100C800026EA30E040E050E00E94DF06CA01B901E8
:100C90000E9456080E941E086B015B0161E08BE018
:100CA0000E94F001C114D104A9F460E08BE00E941D
:100CB000C20160E08AE00E94C20120E030E0232B04
:100CC00009F414CF0E94F600882309F40FCF0E9484
:100CD00000000CCF3FEFC316D10411F461E0E6CF62
:100CE000F8018491833021F148F48130B9F08230E9
:100CF000D1F0F0E8AF16B1048CF7D7CF873011F1FF
:100D0000883041F18430A9F780918000806280931F
:100D10008000D0928B00C0928A00CBCF84B58068CF
:100D200084BDC7BCC6CF84B5806284BDC8BCC1CFFA
:100D300080918000806880938000D0928900C0926A
:100D40008800B7CF8091B00080688093B000C092D7
:100D5000B300AFCF8091B00080628093B000C092AA
:100D6000B400A7CFE9E5F1E01382128288EE93E0A8
:100D7000A0E0B0E084839583A683B78388E091E008
:100D80009183808385EC90E09587848784EC90E064
:100D90009787868780EC90E0918B808B81EC90E048
:100DA000938B828B82EC90E0958B848B86EC90E029
:100DB000978B868B118E128E138E148E0895052EAE
:100DC00097FB1EF400940E94F60657FD07D00E9480
:100DD000090707FC03D04EF40C94F6065095409595
:100DE000309521953F4F4F4F5F4F089590958095D7
:100DF000709561957F4F8F4F9F4F08950E942B07ED
:100E0000A59F900DB49F900DA49F800D911D11245E
:100E10000895A1E21A2EAA1BBB1BFD010DC0AA1F3B
:100E2000BB1FEE1FFF1FA217B307E407F50720F053
:100E3000A21BB30BE40BF50B661F771F881F991FCE
:100E40001A9469F760957095809590959B01AC0117
:100E5000BD01CF010895A29FB001B39FC001A39F20
:100E6000700D811D1124911DB29F700D811D1124E3
:100E7000911D08955058BB27AA270E9452070C9431
:100E8000CC080E94BE0838F00E94C50820F039F452
:100E90009F3F19F426F40C94BB080EF4E095E7FB91
:100EA0000C94B508E92F0E94DD0858F3BA176207C1
:100EB00073078407950720F079F4A6F50C94FF08D2
:100EC0000EF4E0950B2EBA2FA02D0B01B901900165
:100ED0000C01CA01A0011124FF27591B99F0593FA9
:100EE00050F4503E68F11A16F040A22F232F342FF1
:100EF0004427585FF3CF469537952795A795F0403F
:100F00005395C9F77EF41F16BA0B620B730B840B53
:100F1000BAF09150A1F0FF0FBB1F661F771F881F0B
:100F2000C2F70EC0BA0F621F731F841F48F4879563
:100F300077956795B795F7959E3F08F0B0CF939555
:100F4000880F08F09927EE0F9795879508950E94CE
:100F5000910808F481E008950E94C0070C94CC0821
:100F60000E94C50858F00E94BE0840F029F45F3F77
:100F700029F00C94B50851110C9400090C94BB088D
:100F80000E94DD0868F39923B1F3552391F3951B73
:100F9000550BBB27AA2762177307840738F09F5F9A
:100FA0005F4F220F331F441FAA1FA9F335D00E2E07
:100FB0003AF0E0E832D091505040E695001CCAF774
:100FC0002BD0FE2F29D0660F771F881FBB1F261737
:100FD00037074807AB07B0E809F0BB0B802DBF010E
:100FE000FF2793585F4F3AF09E3F510578F00C94DD
:100FF000B5080C9400095F3FE4F3983ED4F386955E
:1010000077956795B795F7959F5FC9F7880F911DFD
:101010009695879597F90895E1E0660F771F881FE9
:10102000BB1F621773078407BA0720F0621B730B9C
:10103000840BBA0BEE1F88F7E09508950E942508EF
:101040006894B1110C94000908950E94E50888F095
:101050009F5798F0B92F9927B751B0F0E1F0660F7C
:10106000771F881F991F1AF0BA95C9F714C0B130BD
:1010700091F00E94FF08B1E008950C94FF08672FDB
:10108000782F8827B85F39F0B93FCCF386957795EC
:101090006795B395D9F73EF49095809570956195D5
:1010A0007F4F8F4F9F4F0895E89409C097FB3EF400
:1010B00090958095709561957F4F8F4F9F4F9923A5
:1010C000A9F0F92F96E9BB279395F6958795779523
:1010D0006795B795F111F8CFFAF4BB0F11F460FFE3
:1010E0001BC06F5F7F4F8F4F9F4F16C0882311F03B
:1010F00096E911C0772321F09EE8872F762F05C04F
:10110000662371F096E8862F70E060E02AF09A95E9
:10111000660F771F881FDAF7880F9695879597F9DE
:101120000895990F0008550FAA0BE0E8FEEF161678
:101130001706E807F907C0F012161306E407F507CB
:1011400098F0621B730B840B950B39F40A2661F03F
:10115000232B242B252B21F408950A2609F4A140E2
:10116000A6958FEF811D811D089597F99F6780E8EF
:1011700070E060E008959FEF80EC089500240A94E9
:101180001616170618060906089500240A94121662
:101190001306140605060895092E0394000C11F495
:1011A000882352F0BB0F40F4BF2B11F460FF04C042
:1011B0006F5F7F4F8F4F9F4F089557FD9058440F9B
:1011C000551F59F05F3F71F04795880F97FB991FA6
:1011D00061F09F3F79F08795089512161306140663
:1011E000551FF2CF4695F1DF08C0161617061806F0
:1011F000991FF1CF86957105610508940895E894CB
:10120000BB2766277727CB0197F908950E9491089D
:1012100008F48FEF08950E941E090C94CC080E94D8
:10122000BE0838F00E94C50820F0952311F00C94F8
:10123000B5080C94BB0811240C9400090E94DD0829
:1012400070F3959FC1F3950F50E0551F629FF00119
:10125000729FBB27F00DB11D639FAA27F00DB11D32
:10126000AA1F649F6627B00DA11D661F829F2227BB
:10127000B00DA11D621F739FB00DA11D621F839F42
:10128000A00D611D221F749F3327A00D611D231F18
:10129000849F600D211D822F762F6A2F11249F5766
:1012A00050409AF0F1F088234AF0EE0FFF1FBB1F69
:1012B000661F771F881F91505040A9F79E3F510528
:1012C00080F00C94B5080C9400095F3FE4F3983E5D
:1012D000D4F3869577956795B795F795E7959F5FD2
:1012E000C1F7FE2B880F911D9695879597F9089564
:1012F0000E949108880B990B0895EE0FFF1F05902F
:10130000F491E02D0994F894FFCF2102210200000E
:1013100000002C018C00B9007901EA00C800DC0053
:101320007370656564203D20006E616E00696E66B5
:0E133000006F7666000D0A007374617274001F
:107E0000112484B714BE81FFF0D085E080938100F7
:107E100082E08093C00088E18093C10086E0809377
:107E2000C20080E18093C4008EE0C9D0259A86E02C
:107E300020E33CEF91E0309385002093840096BBD3
:107E4000B09BFECF1D9AA8958150A9F7CC24DD24C4
:107E500088248394B5E0AB2EA1E19A2EF3E0BF2EE7
:107E6000A2D0813461F49FD0082FAFD0023811F036
:107E7000013811F484E001C083E08DD089C08234E0
:107E800011F484E103C0853419F485E0A6D080C0E4
:107E9000853579F488D0E82EFF2485D0082F10E0AE
:107EA000102F00270E291F29000F111F8ED06801E7
:107EB0006FC0863521F484E090D080E0DECF843638
:107EC00009F040C070D06FD0082F6DD080E0C81688
:107ED00080E7D80618F4F601B7BEE895C0E0D1E017
:107EE00062D089930C17E1F7F0E0CF16F0E7DF06D8
:107EF00018F0F601B7BEE89568D007B600FCFDCFD4
:107F0000A601A0E0B1E02C9130E011968C91119780
:107F100090E0982F8827822B932B1296FA010C0160
:107F200087BEE89511244E5F5F4FF1E0A038BF0790
:107F300051F7F601A7BEE89507B600FCFDCF97BE46
:107F4000E89526C08437B1F42ED02DD0F82E2BD052
:107F50003CD0F601EF2C8F010F5F1F4F84911BD097
:107F6000EA94F801C1F70894C11CD11CFA94CF0C13
:107F7000D11C0EC0853739F428D08EE10CD085E9AC
:107F80000AD08FE07ACF813511F488E018D01DD067
:107F900080E101D065CF982F8091C00085FFFCCF94
:107FA0009093C60008958091C00087FFFCCF809118
:107FB000C00084FD01C0A8958091C6000895E0E648
:107FC000F0E098E1908380830895EDDF803219F02E
:107FD00088E0F5DFFFCF84E1DECF1F93182FE3DFCA
:107FE0001150E9F7F2DF1F91089580E0E8DFEE27F6
:047FF000FF270994CA
:027FFE00040479
:00000001FF
