:020000040000FA
:100000000C9480000C941E050C94F7040C94A8002A
:100010000C94A8000C94A8000C94A8000C94A800C0
:100020000C94A8000C94A8000C94A8000C94A800B0
:100030000C94A8000C94A8000C94A8000C94A800A0
:100040000C94AD040C94A8000C947B040C945504FF
:100050000C94A8000C94A8000C94A8000C94A80080
:100060000C94A8000C94A8004E414E494E49545996
:10007000494E46CDCCCC3D0AD7233C17B7D1387773
:10008000CC2B329595E6241FB14F0A000020410089
:1000900000C84200401C4620BCBE4CCA1B0E5AAED3
:1000A000C59D740000000023002600290000000008
:1000B00000240027002A0000000000250028002B53
:1000C0000004040404040404040202020202020301
:1000D000030303030301020408102040800102040B
:1000E000081020010204081020000000080002018E
:1000F0000000030407000000000000000000590891
:1001000011241FBECFEFD8E0DEBFCDBF11E0A0E0CD
:10011000B1E0E2EAFDE102C005900D92AA32B1071A
:10012000D9F721E0AAE2B1E001C01D92A73FB207D2
:10013000E1F710E0C0E8D0E004C02197FE010E9482
:10014000CE0CCF37D107C9F70E9445050C94CF0ECE
:100150000C9400000895AF92BF92CF92DF92EF927D
:10016000FF920F931F93CF93DF936C017B018B0161
:10017000040F151FEB015E01AE18BF08C017D107B1
:1001800059F06991D601ED91FC910190F081E02D3B
:10019000C6010995892B79F7C501DF91CF911F9190
:1001A0000F91FF90EF90DF90CF90BF90AF900895A8
:1001B000FC01538D448D252F30E0842F90E0821B6D
:1001C000930B541710F0CF96089501970895FC01F2
:1001D000918D828D981761F0A28DAE0FBF2FB11D4A
:1001E0005D968C91928D9F5F9F73928F90E00895A2
:1001F0008FEF9FEF0895FC01918D828D981731F05C
:10020000828DE80FF11D858D90E008958FEF9FEFAF
:100210000895FC01918D228D892F90E0805C9F4F85
:10022000821B91098F739927089584E591E00E94BC
:10023000090121E0892B09F420E0822F089580E054
:1002400090E0892B29F00E94150181110C94000087
:100250000895FC01A48DA80FB92FB11DA35ABF4F5B
:100260002C91848D90E001968F739927848FA689B5
:10027000B7892C93A089B1898C91837080648C9309
:10028000938D848D981306C00288F389E02D8081B8
:100290008F7D80830895EF92FF920F931F93CF93EA
:1002A000DF93EC0181E0888F9B8D8C8D98131AC0B1
:1002B000E889F989808185FF15C09FB7F894EE8998
:1002C000FF896083E889F9898081837080648083F5
:1002D0009FBF81E090E0DF91CF911F910F91FF9040
:1002E000EF900895F62E0B8D10E00F5F1F4F0F73E8
:1002F0001127E02E8C8D8E110CC00FB607FCFACFA3
:10030000E889F989808185FFF5CFCE010E94290116
:10031000F1CFEB8DEC0FFD2FF11DE35AFF4FF08273
:100320009FB7F8940B8FEA89FB8980818062CFCFD9
:10033000CF93DF93EC01888D8823B9F0AA89BB891C
:10034000E889F9898C9185FD03C0808186FD0DC007
:100350000FB607FCF7CF8C9185FFF2CF808185FF28
:10036000EDCFCE010E942901E9CFDF91CF91089511
:10037000833081F028F4813099F08230A9F008951B
:100380008730A9F08830C9F08430B1F480918000C2
:100390008F7D03C0809180008F77809380000895C7
:1003A00084B58F7784BD089584B58F7DFBCF809110
:1003B000B0008F778093B00008958091B0008F7D5A
:1003C000F9CF1F93CF93DF93282F30E0F901E75146
:1003D000FF4F8491F901EB52FF4FD491F901EF5394
:1003E000FF4FC491CC23A9F0162F81110E94B801B0
:1003F000EC2FF0E0EE0FFF1FE954FF4FA591B491F1
:100400008FB7F894EC91111108C0D095DE23DC93DE
:100410008FBFDF91CF911F910895DE2BF8CFCF933F
:10042000DF9390E0FC01EB52FF4F24918F539F4FDD
:10043000FC0184918823D1F090E0880F991FFC0182
:10044000E355FF4FA591B491FC01E954FF4FC591CD
:10045000D49161110EC09FB7F8948C91E22FE09572
:100460008E238C932881E223E8839FBFDF91CF9175
:1004700008958FB7F894EC91E22BEC938FBFF6CFF1
:100480003FB7F8948091370190913801A0913901DC
:10049000B0913A0126B5A89B05C02F3F19F00196EF
:1004A000A11DB11D3FBFBA2FA92F982F8827BC01CE
:1004B000CD01620F711D811D911D42E0660F771FF6
:1004C000881F991F4A95D1F7089508958F929F929A
:1004D000AF92BF92CF92DF92EF92FF92CF93DF93D2
:1004E000EDEEF0E08491E9EDF0E0D491E5ECF0E0A0
:1004F000C491CC2309F4A2C081110E94B801EC2F51
:10050000F0E0EE0FFF1FED55FF4FA591B491EC9178
:10051000ED2309F493C08091320190913301A091B1
:100520003401B09135010197A109B10980933201DD
:1005300090933301A0933401B09335018FB7F894B1
:10054000C0903B01D0903C01E0903D01F0903E0115
:100550008FBF60913201709133018091340190918D
:1005600035010E94020A4B015C0160912E017091DD
:100570002F0180913001909131010E94020A9B016C
:10058000AC01C501B4010E94B40B20E030E040E7AB
:1005900052E40E94610A20E034E244E759E40E94F8
:1005A000610A4B015C0180912A0190912B01A0917D
:1005B0002C01B0912D01A7019601281B390B4A0B84
:1005C0005B0BA8E1B0E00E94410B0E94000A9B0176
:1005D000AC01C501B4010E94210C20E030E04AE7E3
:1005E00054E40E94210C6093500170935101809358
:1005F0005201909353018091320190913301A09167
:100600003401B091350180932E0190932F01A09376
:100610003001B0933101C0922A01D0922B01E092B7
:100620002C01F0922D01DF91CF91FF90EF90DF90A0
:10063000CF90BF90AF909F908F900895809132019E
:1006400090913301A0913401B09135010196A11D23
:10065000B11D6CCFFC0124813581232B49F068E268
:1006600071E0808191810E94BF0E21E0892B09F009
:1006700020E0822F08950F931F93CF93DF938C0177
:10068000EB01FC01808191810097E1F06881798123
:1006900061157105A9F0428153812C813D8142177A
:1006A000530770F00E94C80E8C819D81F8019583DC
:1006B00084831D821C82DF91CF911F910F91089539
:1006C0000E94700D88819981F801918380838A81CD
:1006D0009B81938382838C819D81958384831982FE
:1006E00018821B821A82E5CFFC01808191810097DC
:1006F00011F00C94700D0895FC0180819181009798
:1007000011F00C94860860E070E0CB0108950F931F
:100710001F93CF93DF93EC0188819981009759F063
:100720002A813B812617370730F081E0DF91CF9196
:100730001F910F9108958B016F5F7F4F0E94F90DFC
:10074000009759F0998388831B830A832C813D810C
:10075000232B59F7FC011082E8CF80E0E7CFEF921E
:10076000FF920F931F93CF93DF93EC017B01FB016B
:1007700001900020E9F731978F01061B170BB80194
:100780000E94870328813981811113C02115310509
:1007900019F0C9010E94700D198218821D821C82F5
:1007A0001B821A82DF91CF911F910F91FF90EF90E2
:1007B00008951D830C83B701C901DF91CF911F916B
:1007C0000F91FF90EF900C94C80EEF92FF920F9351
:1007D0001F93CF93DF93CDB7DEB728970FB6F8946A
:1007E000DEBF0FBECDBF8C011A8219821C821B8214
:1007F0001E821D8269E271E0CE0101960E94AF0364
:1008000084E591E00E940901892B09F441C084E547
:1008100091E00E94E7008532F9F4F801118210821C
:100820001382128215821482BE016F5F7F4FC8014E
:100830000E943B03CE0101960E947403C8012896D2
:100840000FB6F894DEBF0FBECDBFDF91CF911F91E1
:100850000F91FF90EF9008958F831886ED80FE80B2
:10086000FFEFEF1AFF0AB701CE0101960E9487033E
:10087000882331F229813A818D819E81BE01695F91
:100880007F4F820F931F0E94C80EFE82ED82B8CF69
:10089000F80111821082138212821582148268E29A
:1008A00071E0C8010E94AF03C5CF1F920F920FB62F
:1008B0000F9211242F933F934F935F936F937F93E6
:1008C0008F939F93AF93BF93EF93FF9384E591E052
:1008D0000E942901FF91EF91BF91AF919F918F915C
:1008E0007F916F915F914F913F912F910F900FBE2C
:1008F0000F901F9018951F920F920FB60F92112410
:100900002F938F939F93EF93FF93E0916401F09166
:1009100065018081E0916A01F0916B0182FD1BC04D
:10092000908180916D018F5F8F7320916E0182178E
:1009300041F0E0916D01F0E0EC5AFE4F958F80930D
:100940006D01FF91EF919F918F912F910F900FBEAD
:100950000F901F9018958081F4CF1F920F920FB6C1
:100960000F9211242F933F938F939F93AF93BF9335
:1009700080913B0190913C01A0913D01B0913E01DD
:100980003091360123E0230F2D3758F50196A11D34
:10099000B11D2093360180933B0190933C01A093BD
:1009A0003D01B0933E018091370190913801A091B3
:1009B0003901B0913A010196A11DB11D8093370113
:1009C00090933801A0933901B0933A01BF91AF9150
:1009D0009F918F913F912F910F900FBE0F901F907D
:1009E000189526E8230F0296A11DB11DD2CF1F92A4
:1009F0000F920FB60F9211242F933F934F935F9353
:100A00006F937F938F939F93AF93BF93EF93FF93D6
:100A1000E0910201F09103010995FF91EF91BF91DF
:100A2000AF919F918F917F916F915F914F913F9186
:100A30002F910F900FBE0F901F9018951F920F923D
:100A40000FB60F9211242F933F934F935F936F93A1
:100A50007F938F939F93AF93BF93EF93FF93E09117
:100A60000001F09101010995FF91EF91BF91AF91C4
:100A70009F918F917F916F915F914F913F912F91B6
:100A80000F900FBE0F901F901895CF93DF93CDB7A7
:100A9000DEB76C970FB6F894DEBF0FBECDBF78946B
:100AA00084B5826084BD84B5816084BD85B5826073
:100AB00085BD85B5816085BD80916E008160809324
:100AC0006E0010928100809181008260809381008D
:100AD000809181008160809381008091800081609D
:100AE000809380008091B10084608093B1008091F8
:100AF000B00081608093B00080917A008460809320
:100B00007A0080917A00826080937A0080917A00E6
:100B1000816080937A0080917A00806880937A0067
:100B20001092C10061E08BE00E940F0261E08AE058
:100B30000E940F0260E082E00E940F0260E084E009
:100B40000E940F0261E08DE00E940F0261E08CE0E4
:100B50000E940F0286E692E09093010180930001CB
:100B600080916900836080936900E89AE091640154
:100B7000F091650182E08083E0916001F091610174
:100B80001082E0916201F09163018FEC80831092FA
:100B90006C01E0916801F091690186E08083E09149
:100BA0006601F0916701808180618083E091660138
:100BB000F0916701808188608083E0916601F09107
:100BC0006701808180688083E0916601F091670110
:100BD00080818F7D808390E0292E90E0392E11E076
:100BE00084E591E00E940901892B09F4DFC084E5C6
:100BF00091E00E94090102970CF4D8C084E591E0CD
:100C00000E94E700082F18861F821A8619861C8604
:100C10001B8669E271E0CE0107960E94AF030035A2
:100C200009F458C05CF4043409F498C0093409F498
:100C300073C0CE0107960E947403D9CF023509F420
:100C4000AFC00335B1F7CE0101960E94E503BE01A6
:100C50006F5F7F4FCE0107960E943B03CE01019646
:100C60000E94740361E08DE00E94E1010E94400255
:100C70004B015C0184EFC82EDD24D394E12CF12CD0
:100C80000E944002681979098A099B09683E7340ED
:100C900081059105A8F321E0C21AD108E108F10805
:100CA00038EE830E33E0931EA11CB11CC114D10495
:100CB000E104F10429F760E08DE00E94E101CE013A
:100CC00007960E942A038111B4CFCE0107960E9495
:100CD0007C03AFCFCE0101960E94E503BE016F5F9A
:100CE0007F4FCE0107960E943B03CE0101960E94E2
:100CF0007403CE0107960E942A0381119ACFCE0178
:100D000007960E947C036093040170930501809311
:100D10000601909307018DCFCE0101960E94E50355
:100D2000BE016F5F7F4FCE0107960E943B03CE014D
:100D300001960E947403CE0107960E942A03811136
:100D400078CFCE0107960E947C03609308017093D0
:100D5000090180930A0190930B016BCFCE0101969C
:100D60000E94E503BE016F5F7F4FCE0107960E9490
:100D70003B03CE0101960E947403CE0107960E94A8
:100D80002A03811156CFCE0107960E947C036093FF
:100D90000C0170930D0180930E0190930F0149CFC8
:100DA00080914B01812780934B0143CF20915001CB
:100DB00030915101409152015091530160E070E037
:100DC00082E093E40E94B40B6B017C0180910C01E2
:100DD00090910D01A0910E01B0910F01898B9A8B1A
:100DE000AB8BBC8B209108013091090140910A0125
:100DF00050910B012D8B3E8B4F8B588F80910401AE
:100E000090910501A0910601B0910701898F9A8FF9
:100E1000AB8FBC8F8FB7F89440903B0150903C0152
:100E200060903D0170903E018FBF80914301909191
:100E30004401A0914501B0914601A3019201281BF4
:100E4000390B4A0B5B0BCA01B9010E94000A4B0126
:100E50005C014092430150924401609245017092BE
:100E6000460180913F0190914001A0914101B091D4
:100E700042018D879E87AF87B88B9C01AD016D893C
:100E80007E898F89988D0E94610AA50194010E9434
:100E9000610A2B013C01298D3A8D4B8D5C8DC70178
:100EA000B6010E94610A9B01AC01C301B2010E941C
:100EB000B50B2B013C0129893A894B895C89C70113
:100EC000B6010E94610AA50194010E94210C9B01B8
:100ED000AC01C301B2010E94B50B4B015C018092D1
:100EE0004C0190924D01A0924E01B0924F012D8580
:100EF0003E854F855889C701B6010E94B50B6093A6
:100F00003F0170934001809341019093420120E0A2
:100F100030E046E253E4C501B4010E94C90C181642
:100F200064F420E030E045E253E420934C01309338
:100F30004D0140934E0150934F0120E030E0A90154
:100F400060914C0170914D0180914E0190914F0143
:100F50000E94FB0987FF08C010924C0110924D01BE
:100F600010924E0110924F0180914B01882309F499
:100F70004DC060914C0170914D0180914E01909156
:100F80004F010E94930C9B01AC01AFEFB0E00E94B7
:100F9000410B26EA30E040E050E00E94220BCA01FB
:100FA000B9010E94020A609347017093480180933F
:100FB000490190934A0161E08CE00E94E101609157
:100FC0004701709148018091490190914A010E9426
:100FD000930C4B017B0161E08BE00E940F028114B6
:100FE0009104F1F460E08BE00E94E10160E08AE0AE
:100FF0000E94E1012114310409F4F2CD0E9415018F
:10100000882309F4ECCD0E940000E9CD109247013D
:10101000109248011092490110924A0160E0CCCF31
:101020003FEF8316910411F461E0DDCFE4EFF0E0CF
:101030008491833021F148F48130B9F08230D1F0CD
:10104000F0E8EF16F10484F7CDCF873011F1883046
:1010500041F18430A9F78091800080628093800004
:1010600090928B0080928A00C1CF84B5806884BD45
:1010700087BCBCCF84B5806284BD88BCB7CF80916B
:101080008000806880938000909289008092880020
:10109000ADCF8091B00080688093B0008092B300A3
:1010A000A5CF8091B00080628093B0008092B400A0
:1010B0009DCFE4E5F1E01382128288EE93E0A0E098
:1010C000B0E084839583A683B7838AE191E091831E
:1010D000808385EC90E09587848784EC90E0978707
:1010E000868780EC90E0918B808B81EC90E0938BF5
:1010F000828B82EC90E0958B848B86EC90E0978BD2
:10110000868B118E128E138E148E08956627772784
:101110000C948A08B0E0A0E0E0E9F8E00C94520BEF
:101120005C017B016115710519F0DB018D939C93C6
:1011300085010F5F1F4FF501D0818D2F90E00E9438
:10114000DA096C01892BB9F5DD32B9F50F5F1F4F54
:10115000D5011196DC91C1E05801F1E0AF1AB10858
:1011600043E050E060E770E0C5010E94E309892B8D
:1011700069F5680182E0C80ED11C45E050E06BE6DD
:1011800070E0C6010E94E309892B21F4680197E011
:10119000C90ED11CE114F10419F0D701CD92DC92F3
:1011A00060E070E080E89FEFC111FFC060E070E098
:1011B00080E89FE7FAC05801BBCFDB3229F48501F4
:1011C0000E5F1F4FF501D181C0E0C6CF43E050E074
:1011D00068E670E0C5010E94E309892BE9F0F80197
:1011E00010E000E020E030E0A9015F01B0ED8B2EBF
:1011F0008D0E89E08815C8F19C2E689491F88C2F8B
:101200008870C2FF16C0811102C00F5F1F4F319658
:10121000D501DC91C92DE9CFE114F10429F00E5F6D
:101220001F4FF7011183008360E070E080EC9FE7BF
:10123000BCC0882311F001501109A5E0B0E00E9464
:10124000410B9B01AC01220F331F441F551F280D7A
:10125000311D411D511D283999E93907490799E187
:101260005907A8F2C6609C2ED2CFAEEF8A1206C0F4
:10127000C3FD3CC09C2E689493F8C9CFDF7DD53464
:10128000A9F580818D3239F4C061DF011296818128
:1012900062E070E006C0DF018B32C1F3119661E0BD
:1012A00070E080535D01A61AB70A8A30F8F4E0E8CE
:1012B000CE16ECE0DE065CF4B601660F771F660F13
:1012C000771FC60ED71ECC0CDD1CC80ED11C5D01CD
:1012D000FFEFAF1ABF0A8C9180538A30A8F1C4FF88
:1012E00003C0D194C194D1080C0D1D1DC1FF09C0CC
:1012F000E114F10431F081E0A81AB108D701AD92F0
:10130000BC92CA01B9010E94000AC370C33009F43B
:1013100090584B015C0120E030E0A9010E94FB09DC
:10132000882309F440C0CFE9D0E017FF05C011952C
:1013300001951109C7E8D0E06E01B8E1CB1AD108D8
:1013400080E2E82EF12C0FC0D501B1CFFE0125912E
:101350003591459154910E191F09C501B4010E94A0
:10136000610A4B015C01D501C4010E151F0574F71C
:101370002497F594E794CC16DD06A9F78A2F880FF9
:101380008B2F881F8F3F49F020E030E0A901C50175
:10139000B4010E94FB09811106C082E290E09093A3
:1013A000F2018093F101C501B401CDB7DEB7ECE0E5
:1013B0000C946E0B91110C94CE0A803219F0895066
:1013C0008550C8F70895FB01DC014150504088F07A
:1013D0008D9181341CF08B350CF4805E6591613405
:1013E0001CF06B350CF4605E861B611171F3990B78
:1013F0000895881BFCCF0E943D0A08F481E00895FF
:10140000E89409C097FB3EF490958095709561959E
:101410007F4F8F4F9F4F9923A9F0F92F96E9BB2754
:101420009395F695879577956795B795F111F8CFD0
:10143000FAF4BB0F11F460FF1BC06F5F7F4F8F4F3B
:101440009F4F16C0882311F096E911C0772321F031
:101450009EE8872F762F05C0662371F096E8862FC9
:1014600070E060E02AF09A95660F771F881FDAF720
:10147000880F9695879597F90895990F0008550F4D
:10148000AA0BE0E8FEEF16161706E807F907C0F00A
:1014900012161306E407F50798F0621B730B840B12
:1014A000950B39F40A2661F0232B242B252B21F4EC
:1014B00008950A2609F4A140A6958FEF811D811D8C
:1014C00008950E94740A0C94E80A0E94DA0A38F01F
:1014D0000E94E10A20F0952311F00C94D10A0C949B
:1014E000D70A11240C941C0B0E94F90A70F3959FE3
:1014F000C1F3950F50E0551F629FF001729FBB270B
:10150000F00DB11D639FAA27F00DB11DAA1F649FA6
:101510006627B00DA11D661F829F2227B00DA11D59
:10152000621F739FB00DA11D621F839FA00D611DDF
:10153000221F749F3327A00D611D231F849F600D00
:10154000211D822F762F6A2F11249F5750409AF029
:10155000F1F088234AF0EE0FFF1FBB1F661F771FB5
:10156000881F91505040A9F79E3F510580F00C9480
:10157000D10A0C941C0B5F3FE4F3983ED4F386959C
:1015800077956795B795F795E7959F5FC1F7FE2B20
:10159000880F911D9695879597F908959927882723
:1015A000089597F99F6780E870E060E008959FEFE5
:1015B00080EC089500240A941616170618060906EA
:1015C000089500240A9412161306140605060895B9
:1015D000092E0394000C11F4882352F0BB0F40F441
:1015E000BF2B11F460FF04C06F5F7F4F8F4F9F4F81
:1015F000089557FD9058440F551F59F05F3F71F003
:101600004795880F97FB991F61F09F3F79F0879569
:101610000895121613061406551FF2CF4695F1DFF2
:1016200008C0161617061806991FF1CF8695710582
:10163000610508940895E894BB2766277727CB01B6
:1016400097F90895052E97FB1EF400940E94390B1C
:1016500057FD07D00E94830B07FC03D04EF40C9477
:10166000390B50954095309521953F4F4F4F5F4F27
:10167000089590958095709561957F4F8F4F9F4FFE
:1016800008950E94A50BA59F900DB49F900DA49F57
:10169000800D911D112408952F923F924F925F92D9
:1016A0006F927F928F929F92AF92BF92CF92DF9272
:1016B000EF92FF920F931F93CF93DF93CDB7DEB7D7
:1016C000CA1BDB0B0FB6F894DEBF0FBECDBF09946B
:1016D0002A88398848885F846E847D848C849B84C2
:1016E000AA84B984C884DF80EE80FD800C811B81D0
:1016F000AA81B981CE0FD11D0FB6F894DEBF0FBEFF
:10170000CDBFED010895A1E21A2EAA1BBB1BFD015E
:101710000DC0AA1FBB1FEE1FFF1FA217B307E407D0
:10172000F50720F0A21BB30BE40BF50B661F771F28
:10173000881F991F1A9469F7609570958095909508
:101740009B01AC01BD01CF010895A29FB001B39FE1
:10175000C001A39F700D811D1124911DB29F700DBA
:10176000811D1124911D08955058BB27AA270E945E
:10177000CC0B0C94E80A0E94DA0A38F00E94E10AC5
:1017800020F039F49F3F19F426F40C94D70A0EF494
:10179000E095E7FB0C94D10AE92F0E94F90A58F36F
:1017A000BA17620773078407950720F079F4A6F546
:1017B0000C941B0B0EF4E0950B2EBA2FA02D0B01F1
:1017C000B90190010C01CA01A0011124FF27591B86
:1017D00099F0593F50F4503E68F11A16F040A22F8C
:1017E000232F342F4427585FF3CF469537952795FD
:1017F000A795F0405395C9F77EF41F16BA0B620BFC
:10180000730B840BBAF09150A1F0FF0FBB1F661F42
:10181000771F881FC2F70EC0BA0F621F731F841F85
:1018200048F4879577956795B795F7959E3F08F0AB
:10183000B0CF9395880F08F09927EE0F979587956D
:1018400008950E94350C0C94E80A0E94E10A58F0B1
:101850000E94DA0A40F029F45F3F29F00C94D10A83
:1018600051110C941C0B0C94D70A0E94F90A68F3CE
:101870009923B1F3552391F3951B550BBB27AA2749
:1018800062177307840738F09F5F5F4F220F331F83
:10189000441FAA1FA9F335D00E2E3AF0E0E832D04B
:1018A00091505040E695001CCAF72BD0FE2F29D04E
:1018B000660F771F881FBB1F261737074807AB0720
:1018C000B0E809F0BB0B802DBF01FF2793585F4F95
:1018D0003AF09E3F510578F00C94D10A0C941C0B01
:1018E0005F3FE4F3983ED4F3869577956795B79577
:1018F000F7959F5FC9F7880F911D9695879597F982
:101900000895E1E0660F771F881FBB1F62177307FA
:101910008407BA0720F0621B730B840BBA0BEE1F0F
:1019200088F7E09508950E949A0C6894B1110C9480
:101930001C0B08950E94010B88F09F5798F0B92F57
:101940009927B751B0F0E1F0660F771F881F991FF4
:101950001AF0BA95C9F714C0B13091F00E941B0B70
:10196000B1E008950C941B0B672F782F8827B85F80
:1019700039F0B93FCCF3869577956795B395D9F74C
:101980003EF490958095709561957F4F8F4F9F4F56
:1019900008950E943D0A08F48FEF0895EE0FFF1F8F
:1019A0000590F491E02D09940F931F93CF93DF934B
:1019B0008230910510F482E090E0E091F501F09121
:1019C000F60130E020E0B0E0A0E0309799F4211576
:1019D000310509F44AC0281B390B24303105D8F5EC
:1019E0008A819B816115710589F1FB019383828353
:1019F000FE0111C0408151810281138148175907AE
:101A0000E0F04817590799F4109761F012960C937B
:101A1000129713961C933296CF01DF91CF911F91AD
:101A20000F9108950093F5011093F601F4CF21155D
:101A3000310551F04217530738F0A901DB019A0133
:101A4000BD01DF01F801C1CFEF01F9CF9093F6019D
:101A50008093F501CDCFFE01E20FF31F81939193A7
:101A60002250310939832883D7CF2091F301309157
:101A7000F401232B41F42091120130911301309392
:101A8000F4012093F30120911001309111012115EF
:101A9000310541F42DB73EB7409114015091150125
:101AA000241B350BE091F301F091F401E217F307E9
:101AB000A0F42E1B3F0B2817390778F0AC014E5FBE
:101AC0005F4F2417350748F04E0F5F1F5093F40106
:101AD0004093F301819391939FCFF0E0E0E09CCF9E
:101AE000CF93DF930097E9F0FC01329713821282C3
:101AF000A091F501B091F601ED0130E020E01097E2
:101B0000A1F420813181820F931F2091F301309144
:101B1000F4012817390709F061C0F093F401E0934C
:101B2000F301DF91CF910895EA01CE17DF07E8F5C1
:101B30004A815B819E0141155105B1F7E901FB83A3
:101B4000EA8349915991C40FD51FEC17FD0761F441
:101B5000808191810296840F951FE9019983888382
:101B6000828193819B838A83F0E0E0E012968D91DD
:101B70009C9113970097B9F52D913C911197CD0148
:101B80000296820F931F2091F3013091F4012817E0
:101B9000390739F6309751F51092F6011092F50198
:101BA000B093F401A093F301BCCFD383C2834081EF
:101BB0005181840F951FC817D90761F44E5F5F4F9D
:101BC00088819981480F591F518340838A819B8165
:101BD000938382832115310509F0B0CFF093F6018C
:101BE000E093F5019ECFFD01DC01C0CF138212828C
:101BF000D7CFB0E0A0E0EFEFFDE00C944E0B8C01EE
:101C0000009751F4CB010E94D40C8C01C801CDB7D0
:101C1000DEB7E0E10C946A0BFC01E60FF71F9C01B4
:101C200022503109E217F30708F49DC0D901CD9184
:101C3000DC911197C617D70798F0C530D10530F35E
:101C4000CE0104978617970708F3C61BD70B229778
:101C5000C193D1936D937C93CF010E94700DD6CF29
:101C60005B01AC1ABD0A4C018C0E9D1EA091F501C2
:101C7000B091F601512C412CF12CE12C109731F54B
:101C80008091F3019091F4018815990509F05CC0E9
:101C90004616570608F058C0809110019091110126
:101CA000009741F48DB79EB74091140150911501F2
:101CB000841B950BE817F90708F055C0F093F40161
:101CC000E093F301F90171836083A0CF8D919C9122
:101CD000119712966C90129713967C901397A815F3
:101CE000B90559F56C0142E0C40ED11CCA14DB04DD
:101CF00020F1AC014A195B09DA011296159780F0C0
:101D00006282738251834083D9016D937C93E11485
:101D1000F10471F0D7011396FC93EE93129776CFEE
:101D200022968C0F9D1FF90191838083F301EFCFE1
:101D3000F093F601E093F50169CF4816590608F4CF
:101D40002C017D01D3019ACFCB010E94D40C7C01E0
:101D5000009749F0AE01B8010E94B60EC8010E947A
:101D6000700D870153CF10E000E050CFFB01DC0184
:101D700002C001900D9241505040D8F70895FB01E8
:101D8000DC018D91019080190110D9F3990B089510
:101D9000FB01DC0101900D920020E1F70895F89419
:101DA000FFCF65026502000020410000A041000055
:101DB000A0400000F7018000000000004B01AB00D4
:0C1DC000D80098010901E700FB00580062
:107E0000112484B714BE81FFF0D085E080938100F7
:107E100082E08093C00088E18093C10086E0809377
:107E2000C20080E18093C4008EE0C9D0259A86E02C
:107E300020E33CEF91E0309385002093840096BBD3
:107E4000B09BFECF1D9AA8958150A9F7CC24DD24C4
:107E500088248394B5E0AB2EA1E19A2EF3E0BF2EE7
:107E6000A2D0813461F49FD0082FAFD0023811F036
:107E7000013811F484E001C083E08DD089C08234E0
:107E800011F484E103C0853419F485E0A6D080C0E4
:107E9000853579F488D0E82EFF2485D0082F10E0AE
:107EA000102F00270E291F29000F111F8ED06801E7
:107EB0006FC0863521F484E090D080E0DECF843638
:107EC00009F040C070D06FD0082F6DD080E0C81688
:107ED00080E7D80618F4F601B7BEE895C0E0D1E017
:107EE00062D089930C17E1F7F0E0CF16F0E7DF06D8
:107EF00018F0F601B7BEE89568D007B600FCFDCFD4
:107F0000A601A0E0B1E02C9130E011968C91119780
:107F100090E0982F8827822B932B1296FA010C0160
:107F200087BEE89511244E5F5F4FF1E0A038BF0790
:107F300051F7F601A7BEE89507B600FCFDCF97BE46
:107F4000E89526C08437B1F42ED02DD0F82E2BD052
:107F50003CD0F601EF2C8F010F5F1F4F84911BD097
:107F6000EA94F801C1F70894C11CD11CFA94CF0C13
:107F7000D11C0EC0853739F428D08EE10CD085E9AC
:107F80000AD08FE07ACF813511F488E018D01DD067
:107F900080E101D065CF982F8091C00085FFFCCF94
:107FA0009093C60008958091C00087FFFCCF809118
:107FB000C00084FD01C0A8958091C6000895E0E648
:107FC000F0E098E1908380830895EDDF803219F02E
:107FD00088E0F5DFFFCF84E1DECF1F93182FE3DFCA
:107FE0001150E9F7F2DF1F91089580E0E8DFEE27F6
:047FF000FF270994CA
:027FFE00040479
:00000001FF
